:020000040800F2
:1000000000000120090200083B0200083D02000830
:100010003F020008410200084302000800000000FF
:100020000000000000000000000000004502000881
:10003000470200080000000049020008950500087A
:1000400039020008390200083902000839020008A4
:100050003902000839020008390200083902000894
:100060003902000839020008390200083902000884
:100070003902000839020008390200083902000874
:100080003902000839020008390200083902000864
:100090003902000839020008390200083902000854
:1000A0003902000839020008390200083902000844
:1000B0003902000839020008390200083902000834
:1000C0003902000839020008390200083902000824
:1000D0003902000839020008C10500083902000889
:1000E0003902000839020008390200080000000047
:1000F0000000000000000000000000000000000000
:100100000000000000000000390200083902000869
:1001100039020008390200083902000839020008D3
:1001200039020008390200083902000839020008C3
:1001300039020008390200083902000839020008B3
:1001400039020008390200083902000839020008A3
:10015000000000000000000000000000000000009F
:10016000000000000000000000000000000000008F
:10017000000000000000000000000000000000007F
:10018000000000000000000000000000000000006F
:10019000000000000000000000000000000000005F
:1001A000000000000000000000000000000000004F
:1001B000000000000000000000000000000000003F
:1001C000000000000000000000000000000000002F
:1001D000000000000000000000000000000000001F
:1001E0005FF8E0F1054A064B06498B4204D252F80B
:1001F000041F43F8041BF7E700F044BDA40D0008FA
:10020000000000202000002010B5094B094A93424D
:1002100003D2002243F8042BF8E700F0EFFC00F0D3
:1002200083F9044600F00EFD204600F01DFD00BFDE
:10023000200000202C000020FEE7FEE7FEE7FEE79E
:0C024000FEE7FEE7FEE7FEE7FEE7FEE754
:04024C00E5010008C0
:1002500002480221002200F06DBB00BF00100140E7
:1002600002480221012200F065BB00BF00100140DE
:1002700002480121002200F05DBB00BF00100140D8
:10028000012102480A4600F055BB00BF00100140A2
:1002900070B504464618B4420DD0074BFF229A8130
:1002A000054D0121284600F0F3FB0028F8D0AB896A
:1002B00004F8013BEFE770BD0030014038B504465B
:1002C0004518AC420ED0084814F8011B00F0DBFBC7
:1002D0000548012100F0DCFB0028F9D0024800F0BD
:1002E000D4FBEEE738BD00BF003001402DE9F047F8
:1002F000102086B0012100F083FB814F08200121EE
:1003000000F07EFB04200121012400F079FB03268C
:100310004FF01008384669460225DFF8E8A18DF84D
:100320000260ADF800408DF8038000F0B5FA384661
:1003300069468DF80260ADF800508DF8038000F03A
:10034000ABFA4023ADF8003050461C2369464FF00D
:1003500018098DF802608DF8033000F09DFA8023B3
:1003600050466946ADF8003020278DF802608DF8C0
:10037000039000F091FA504669468DF802608DF8BE
:100380000390ADF8007000F087FA21464FF48050DA
:1003900000F036FBADF81090DFF86C914FF48273EB
:1003A0000026ADF8063048464FF4007301A9ADF8B9
:1003B0000E30ADF80C40ADF80A50ADF80860ADF85D
:1003C0000460ADF8126000F033FB484621464FF060
:1003D0008F0900F04CFBFFF743FFFFF751FF00F0E0
:1003E0002DF900F03DF98DF80490FFF731FF01A8D9
:1003F0002146FFF763FF01A82146FFF749FFFFF7FA
:100400002FFF8DF80490FFF733FF01A82146FFF777
:1004100055FF01A82146FFF73BFFFFF731FF0F23F0
:100420008DF805308DF80470FFF712FF01A82946FA
:10043000FFF744FFFFF714FF87238DF805308DF891
:100440000470FFF715FF01A82946FFF737FFFFF7F4
:1004500017FF24238DF804308DF80580FFF708FF7F
:1004600001A82946FFF72AFFFFF70AFFA4238DF80A
:100470000430FFF7FDFE01A82146FFF71FFF01A88A
:100480002146FFF705FFFFF7FBFE25238DF804301B
:100490008DF80570FFF7ECFE01A82946FFF70EFF67
:1004A000FFF7EEFEA5238DF80430FFF7E1FE01A86B
:1004B0002146FFF703FF01A82146FFF7E9FEFFF7FA
:1004C000DFFE26238DF804308DF80560FFF7D0FE9F
:1004D00001A82946FFF7F2FEFFF7D2FEA6238DF80A
:1004E0000430FFF7C5FE01A82146FFF7E7FE01A88B
:1004F0002146FFF7CDFEFFF7C3FE06B0BDE8F0874B
:1005000000100140000801400030014008B5022001
:10051000012100F0ADF8FFF7E9FEFFF7E7FEBDE8C7
:10052000084000F009B9000008B50B4B4FF47A728F
:100530001B68F021B3FBF2F3084A013B5360084B00
:1005400083F823100023936007231360FFF7DEFF77
:1005500000F008F8FEE700BF1C00002010E000E0FB
:1005600000ED00E010B5094B1A7802B1FEE71B78E8
:10057000002BF8D1064C2378002BF4D1232000F077
:100580002FF900F03BF901232370ECE72000002055
:100590000400002007490B7853B1074B1A68013259
:1005A0001A601A68054B1B689A4284BF00230B70BF
:1005B000704700BF20000020240000200000002021
:1005C00010B5184840F2255100F0F1FA48B315482B
:1005D00000F0E3FA144C40F225512080114800F05D
:1005E00005FB23889BB2313B032B1AD8DFE803F0CD
:1005F000020E12150D4A117801F0FF0389B901218D
:1006000011700B4A13700B4A136010BD074B002288
:100610001A7010BD42F2107201E04FF0FF32064B2B
:100620001A6010BD00440040280000202000002077
:1006300004000020240000200000002007B5032350
:100640008DF806300548102301A9ADF804308DF867
:10065000073000F021F903B05DF804FB0008014009
:1006600002481021012200F065B900BF00080140D6
:100670002DE9F041074688462E4C86B00420012122
:1006800000F0BEF903251023204669461826ADF870
:1006900000308DF803308DF8025000F0FDF8202373
:1006A00020466946ADF800308DF802508DF80360A1
:1006B00000F0F2F84023ADF8003020461C236946D4
:1006C0008DF803308DF8025000F0E6F880232046C4
:1006D0006946ADF800308DF802508DF8036000F0E7
:1006E000DBF84FF48050012100F08AF90023ADF8C7
:1006F0000830ADF80430ADF8123004F520544FF452
:100700008273ADF8063020464FF4007301A9ADF8AE
:100710000E30ADF81060ADF80C80ADF80A7000F046
:1007200087F92046012100F0A2F9FFF799FF06B0F2
:10073000BDE8F0810008014070B5284C86B0042067
:10074000012100F05DF9032604231825204669469F
:10075000ADF800308DF802608DF8035000F09CF881
:10076000082320466946ADF800308DF802608DF808
:10077000035000F091F84FF40030012100F04CF9E3
:10078000A4F544444FF4E1330C22029320460023A5
:1007900002A9ADF81430ADF81030ADF80E30ADF858
:1007A0000C30ADF8122000F079F92046012100F05C
:1007B000CBF9204640F22551012200F0D1F9262341
:1007C0008DF8043001A801238DF807308DF805302D
:1007D0008DF8063000F02AF806B070BD0008014020
:1007E00081B208B5044800F0D4F90348402100F074
:1007F000D8F90028F9D008BD0044004008B50A48DF
:100800000D2100F0C6F90848402100F0CAF900287F
:10081000F9D005480A2100F0BCF90348402100F056
:10082000C0F90028F9D008BD00440040C27810B5D6
:1008300003780AB3164A03F16043D4684278E4436C
:10084000C4F30224C4F1040102FA01F10F22E240D0
:10085000847803F5614322400A431201D2B283F83F
:10086000002303780122590903F01F0302FA03F35E
:10087000084A42F8213010BD5A09012103F01F0334
:10088000994002F12003034A42F8231010BD00BF33
:1008900000ED00E000E100E0CA78F0B5D40648BF02
:1008A0008C780D8802F00F0348BF234315F0FF0F2B
:1008B0001DD0016800240126A64006EA0507B742BC
:1008C00011D14FEA840E0F2606FA0EF621EA060130
:1008D000282A03FA0EF641EA060101D1476102E037
:1008E000482A08BF07610134082CE4D10160FF2DBC
:1008F0001FD94168002404F108070126BE4006EA1A
:100900000507B74211D14FEA840E0F2606FA0EF6FC
:1009100021EA0601282A03FA0EF641EA060101D16E
:10092000476102E0482A08BF07610134082CE2D180
:100930004160F0BD0AB1016170474161704700003C
:100940002A4B70B55A6802F00C02042A01D0082A1A
:1009500001D0274A2AE05A685968C2F383420D2A17
:1009600001F4803114BF951C062509B9214A1CE009
:10097000D96A1E4C11F4803FDA6A18BFE16A1C4E36
:100980001FBFC1F303110131B6FBF1F1E46A02F0BC
:100990000F021EBFC4F303240234614302F10102BB
:1009A0000CBFB6FBF2F2B1FBF2F26A4302605A6886
:1009B000114CC2F30312A15C0268CA40426059683C
:1009C000C1F30221615C22FA01F181605968C1F32F
:1009D000C221615CCA40C2605B680849C3F38133CD
:1009E000CB5CB2FBF3F2026170BD00BF00100240AD
:1009F00000127A0000093D000900002005000020D7
:100A0000044B9A6909B1104301E022EA00009861A1
:100A1000704700BF00100240044BDA6909B110436F
:100A200001E022EA0000D861704700BF00100240D8
:100A300003884A8810B503F441540B8813438A880D
:100A40001343CA8813430A8913434A8913438A8983
:100A50001343CA89134323439BB20380838B23F43C
:100A600000631B041B0C83830B8A038210BD038865
:100A700019B19BB243F0400303E023F040031B0491
:100A80001B0C0380704781817047808980B270475A
:100A90000389194214BF01200020704770B50E462B
:100AA0000446038ACA889BB223F44053134303824B
:100AB00082890989B38892B20B43718922F4B052BA
:100AC0000B4322F00C0213439BB28381838AB289C9
:100AD0009BB223F4407386B01343838201A8FFF7CF
:100AE0002FFF039B049D174A3168944218BF1D468F
:100AF000A38919226A431BB2002BB4BF4D008D009D
:100B0000B2FBF5F56426B5FBF6F00001010906FB22
:100B10001153A28912B2002AADBF1A01D900323195
:100B20003232B5BFB1FBF6F2B2FBF6F302F00702C8
:100B300003F00F03B4BF1043184380B2208106B006
:100B400070BD00BF00380140838919B19BB243F4E6
:100B5000005303E023F400531B041B0C83817047F4
:100B600010B5C1F34214012301F01F01012C03FA57
:100B700001F301D10C3003E0022C0CBF1030143013
:100B800012B10268134302E0026822EA0303036021
:100B900010BDC1F30801818070478088C0F3080050
:100BA00070470388194214BF0120002070470123B9
:100BB00010B5C1F3421401F01F029C4203FA02F285
:100BC00001D1838903E0022C0CBF038A838A9BB284
:100BD0001340028892B23BB1090A01238B401342B1
:100BE00014BF0120002010BD184610BD090A0123C2
:100BF0008B40DB439BB20380704700000D4B70B508
:100C00001E460D4C0025E41AA410A54204D056F847
:100C1000253098470135F8E7084B094C1E46E41A81
:100C2000A4100025A54204D056F825309847013578
:100C3000F8E770BD4C02000850020008500200089E
:100C40005002000838B5064B064C1D46E41AA410A5
:100C500024B1013C55F824309847F9E738BD00BF6E
:100C600050020008500200080449054BCA6802F40B
:100C7000E0621343CB60BFF34F8FFEE700ED00E06F
:100C80000400FA05434B82B01A6842F001021A6070
:100C90005968414A0A405A601A6822F0847222F464
:100CA00080321A601A6822F480221A605A6822F48C
:100CB000FE025A601A6822F0A0521A604FF47F02B6
:100CC0009A600022DA62009201921A6842F480323D
:100CD0001A601A6802F400320192009A01320092FE
:100CE000019A1AB9009AB2F5A06FF2D11A6812F4FB
:100CF000003218BF01220192019A012A05D0274B28
:100D00004FF000629A6002B07047254A116841F0C6
:100D100010011160116821F003011160116841F0A8
:100D2000020111605A685A605A685A605A6842F45F
:100D300080625A60D96A1B4A0A40DA62DA6A42F46F
:100D4000843242F01402DA621A6842F080621A6059
:100D50001968104A0801FBD5516821F47C115160D3
:100D6000516841F4E8115160116841F080711160DF
:100D70001968084A8901FBD5516821F003015160C7
:100D8000516841F0020151605A6802F00C02082AD1
:100D9000FAD1B4E7001002400000FFF000ED00E0DF
:080DA0000020024000F0FEFFFC
:100DA80010270000010204060800000000010203E9
:100DB80004010203040607080900000000A24A040F
:0400000508000209E4
:00000001FF
