:020000040800F2
:1000000000000120090200083B0200083D02000830
:100010003F020008410200084302000800000000FF
:100020000000000000000000000000004502000881
:100030004702000800000000490200084B020008C7
:1000400039020008390200083902000839020008A4
:100050003902000839020008390200083902000894
:100060003902000839020008390200083902000884
:100070003902000839020008390200083902000874
:100080003902000839020008390200083902000864
:100090003902000839020008390200083902000854
:1000A0003902000839020008390200083902000844
:1000B0003902000839020008390200083902000834
:1000C0003902000839020008390200083902000824
:1000D0003902000839020008C1030008390200088B
:1000E0003902000839020008390200080000000047
:1000F0000000000000000000000000000000000000
:100100000000000000000000390200083902000869
:1001100039020008390200083902000839020008D3
:1001200039020008390200083902000839020008C3
:1001300039020008390200083902000839020008B3
:1001400039020008390200083902000839020008A3
:10015000000000000000000000000000000000009F
:10016000000000000000000000000000000000008F
:10017000000000000000000000000000000000007F
:10018000000000000000000000000000000000006F
:10019000000000000000000000000000000000005F
:1001A000000000000000000000000000000000004F
:1001B000000000000000000000000000000000003F
:1001C000000000000000000000000000000000002F
:1001D000000000000000000000000000000000001F
:1001E0005FF8E0F1054A064B06498B4204D252F80B
:1001F000041F43F8041BF7E700F034BB8409000830
:10020000000000200800002010B5094B094A934265
:1002100003D2002243F8042BF8E700F0DFFA00F0E5
:10022000A9F8044600F0FEFA204600F00DFB00BFDE
:100230000800002014000020FEE7FEE7FEE7FEE7CE
:0C024000FEE7FEE7FEE7FEE7FEE7FEE754
:04024C00E5010008C0
:1002500002480121002200F045BA00BF0010014011
:10026000012102480A4600F03DBA00BF00100140DB
:1002700070B504464618B4420DD0074BFF229A8150
:10028000054D0121284600F06FFA0028F8D0AB890F
:1002900004F8013BEFE770BD0030014038B504467B
:1002A0004518AC420ED0084814F8011B00F057FA6C
:1002B0000548012100F058FA0028F9D0024800F062
:1002C00050FAEEE738BD00BF00300140F7B50746F1
:1002D0000E46154602AC00F0B1F8FFF7B9FFC8238F
:1002E00004F8083D20460121FFF7D8FF20460621EB
:1002F000FFF7BEFF9DF801209DF8003043EA02237E
:100300003B809DF803209DF8023043EA02233380AE
:100310009DF805209DF8043043EA02232B8000F06D
:1003200095F8FFF79DFF03B0F0BD0220012100F01A
:1003300095B87FB500F082F800238DF804308DF871
:1003400005308DF8063001A80C2304218DF8073004
:1003500000F0E8F801A8112100F0FCF800F076F8B0
:1003600007B05DF804FB08B5FFF7DFFFBDE8084004
:10037000FFF7DFBF00B589B0FFF7F5FF0DF106000D
:1003800002A90DF10A02FFF7A1FFBDF9060003A9BA
:10039000062200F03DF9BDF9080003A9062200F08D
:1003A00037F9BDF90A0003A9062200F031F900F07F
:1003B000E7F8024B013BFDD1E0E700BF40420F00F0
:1003C00010B5184840F2255100F0E2F948B315483D
:1003D00000F0D4F9144C40F225512080114800F06F
:1003E000F6F923889BB2313B032B1AD8DFE803F0E0
:1003F000020E12150D4A117801F0FF0389B901218F
:1004000011700B4A13700B4A136010BD074B00228A
:100410001A7010BD42F2107201E04FF0FF32064B2D
:100420001A6010BD004400401000002008000020A9
:10043000040000200C0000200000002002481021D1
:10044000002200F04FB900BF00080140024810210F
:10045000012200F047B900BF000801402DE9F0413A
:10046000074688462E4C86B00420012100F040F952
:100470000325102320466946ADF800308DF803307F
:1004800018268DF8025000F0DFF820232046694638
:10049000ADF800308DF802508DF8036000F0D4F80C
:1004A0004023ADF8003020461C2369468DF8033008
:1004B0008DF8025000F0C8F8802320466946ADF858
:1004C00000308DF802508DF8036000F0BDF84FF455
:1004D0008050012100F00CF90023ADF81030ADF888
:1004E0000830ADF80430ADF8123004F520544FF464
:1004F0008273ADF8063020464FF4007301A9ADF8C1
:100500000E30ADF80C80ADF80A7000F0FDF8204612
:10051000012100F018F9FFF799FF06B0BDE8F0815E
:100520000008014038B504464518AC420ED00848D2
:1005300014F8011B00F013F90548012100F014F92B
:100540000028F9D0024800F00CF9EEE738BD00BFF2
:100550000030014070B504464618B4420DD0074B38
:10056000FF229A81054D0121284600F0FDF8002860
:10057000F8D0AB8904F8013BEFE770BD00300140D3
:1005800008B50A480D2100F0F5F80848402100F0B0
:10059000F9F80028F9D005480A2100F0EBF80348E3
:1005A000402100F0EFF80028F9D008BD00440040D9
:1005B000531CF0B5C4180025C554601E0E460546F0
:1005C0006FF001039B1A1C440A2396FBF3F703FB0D
:1005D00017631BB2002BB8BF5B42303305F80139FB
:1005E000A5423EB2F0D1831A1846C41AE4B2A24220
:1005F0000DDD90F90040302C05D0002907DA2D23BD
:1006000000F8013CF0BD202400F8014BEDE7F0BDFF
:1006100038B503460D4608461946FFF7C9FF0024C2
:10062000E3B2E95C61B149B2064889B200F0A2F8D0
:100630000448402100F0A6F80028F9D00134EFE783
:1006400038BD00BF00440040CA78F0B5D40648BFAA
:100650008C780D8802F00F0348BF234315F0FF0F7D
:100660001DD0016800240126A64006EA0507B7420E
:1006700011D14FEA840E0F2606FA0EF621EA060182
:10068000282A03FA0EF641EA060101D1476102E089
:10069000482A08BF07610134082CE4D10160FF2D0E
:1006A0001FD94168002404F108070126BE4006EA6C
:1006B0000507B74211D14FEA840E0F2606FA0EF64F
:1006C00021EA0601282A03FA0EF641EA060101D1C1
:1006D000476102E0482A08BF07610134082CE2D1D3
:1006E0004160F0BD0AB1016170474161704700008F
:1006F000044B9A6909B1104301E022EA00009861B5
:10070000704700BF0010024003884A8810B503F408
:1007100041540B8813438A881343CA8813430A89B8
:1007200013434A8913438A891343CA8913432343D2
:100730009BB20380838B23F400631B041B0C838315
:100740000B8A038210BD038819B19BB243F04003AA
:1007500003E023F040031B041B0C038070478181DE
:100760007047808980B270470389194214BF012005
:1007700000207047C1F30801818070478088C0F372
:10078000080070470388194214BF012000207047F9
:10079000012310B5C1F3421401F01F029C4203FA79
:1007A00002F201D1838903E0022C0CBF038A838A01
:1007B0009BB21340028892B23BB1090A01238B40DD
:1007C000134214BF0120002010BD184610BD090AB5
:1007D00001238B40DB439BB2038070470D4B70B508
:1007E0001E460D4C0025E41AA410A54204D056F86C
:1007F000253098470135F8E7084B094C1E46E41AA6
:10080000A4100025A54204D056F82530984701359C
:10081000F8E770BD4C0200085002000850020008C2
:100820005002000838B5064B064C1D46E41AA410C9
:1008300024B1013C55F824309847F9E738BD00BF92
:1008400050020008500200080449054BCA6802F42F
:10085000E0621343CB60BFF34F8FFEE700ED00E093
:100860000400FA05434B82B01A6842F001021A6094
:100870005968414A0A405A601A6822F0847222F488
:1008800080321A601A6822F480221A605A6822F4B0
:10089000FE025A601A6822F0A0521A604FF47F02DA
:1008A0009A600022DA62009201921A6842F4803261
:1008B0001A601A6802F400320192009A0132009222
:1008C000019A1AB9009AB2F5A06FF2D11A6812F41F
:1008D000003218BF01220192019A012A05D0274B4C
:1008E0004FF000629A6002B07047254A116841F0EB
:1008F00010011160116821F003011160116841F0CD
:10090000020111605A685A605A685A605A6842F483
:1009100080625A60D96A1B4A0A40DA62DA6A42F493
:10092000843242F01402DA621A6842F080621A607D
:100930001968104A0801FBD5516821F47C115160F7
:10094000516841F4E8115160116841F08071116003
:100950001968084A8901FBD5516821F003015160EB
:10096000516841F0020151605A6802F00C02082AF5
:10097000FAD1B4E7001002400000FFF000ED00E003
:080980000020024000F0FEFF20
:0809880010270000010000002F
:0400000508000209E4
:00000001FF
