:020000040800F2
:1000000000000120090200083B0200083D02000830
:100010003F020008410200084302000800000000FF
:100020000000000000000000000000004502000881
:10003000470200080000000049020008910800087B
:1000400039020008390200083902000839020008A4
:100050003902000839020008390200083902000894
:100060003902000839020008390200083902000884
:100070003902000839020008390200083902000874
:1000800039020008CD0800083902000839020008CA
:100090003902000839020008390200083902000854
:1000A0003902000839020008390200083902000844
:1000B0003902000839020008390200083902000834
:1000C0003902000839020008390200083902000824
:1000D00039020008ED08000839020008390200085A
:1000E0003902000839020008390200080000000047
:1000F0000000000000000000000000000000000000
:100100000000000000000000390200083902000869
:1001100039020008390200083902000839020008D3
:1001200039020008390200083902000839020008C3
:1001300039020008390200083902000839020008B3
:1001400039020008390200083902000839020008A3
:10015000000000000000000000000000000000009F
:10016000000000000000000000000000000000008F
:10017000000000000000000000000000000000007F
:10018000000000000000000000000000000000006F
:10019000000000000000000000000000000000005F
:1001A000000000000000000000000000000000004F
:1001B000000000000000000000000000000000003F
:1001C000000000000000000000000000000000002F
:1001D000000000000000000000000000000000001F
:1001E0005FF8E0F1054A064B06498B4204D252F80B
:1001F000041F43F8041BF7E700F052BFC0110008CA
:10020000000000202000002010B5094B094A93424D
:1002100003D2002243F8042BF8E700F0FDFE00F0C3
:100220007DFA044600F01CFF204600F02BFF00BFC3
:1002300020000020440E0020FEE7FEE7FEE7FEE778
:0C024000FEE7FEE7FEE7FEE7FEE7FEE754
:04024C00E5010008C0
:100250004FF4807000F0A0BB4FF4807000F0A4BB9E
:1002600013B5802302AC04F8043DFFF7F1FF2046EC
:10027000012100F019FC0DF10300012100F02CFC1C
:10028000FFF7EAFF2D238DF8043008238DF80530A1
:10029000FFF7DEFF2046022100F006FCFFF7DCFF3F
:1002A000AD238DF80430FFF7D3FF2046012100F085
:1002B000FBFB0DF10300012100F00EFCFFF7CCFF6A
:1002C00002B010BDF7B507460E46154602ACF22344
:1002D00004F8043DFFF7BCFF2046012100F0E4FBD9
:1002E0002046022100F0F8FB9DF805209DF804301F
:1002F000204643EA02233B80022100F0EDFB9DF8FB
:1003000005209DF80430204643EA02233380022171
:1003100000F0E2FB9DF805209DF8043043EA02233B
:100320002B80FFF799FF03B0F0BD102000F034BB25
:10033000102000F039BB13B58F2302AC04F8043D44
:10034000FFF7F3FF2046012100F0AEFB0DF10500A1
:10035000012100F0C1FBFFF7EBFF9DF80530332BC7
:100360001DD11F238DF8043080238DF80530FFF751
:10037000DCFF2046022100F097FBFFF7D9FF202386
:100380008DF8043077238DF80530FFF7CEFF204637
:10039000022100F089FBFFF7CBFF012000E00020E5
:1003A00002B010BDF7B507460E46154602ACE8236D
:1003B00004F8043DFFF7B9FF2046012100F074FB6B
:1003C0002046022100F088FB9DF805209DF80430AE
:1003D000204643EA02233B80022100F07DFB9DF88A
:1003E00005209DF80430204643EA02233380022191
:1003F00000F072FB9DF805209DF8043043EA0223CB
:100400002B80FFF795FF03B0F0BD000002484FF4CA
:100410008071002200F09EBC0008014002484FF4A9
:100420008071012200F096BC0008014002481021B2
:10043000002200F08FBC00BF0008014002481021DC
:10044000012200F087BC00BF0008014070B50446DF
:100450004618B4420DD0074BFF229A81054D012169
:10046000284600F023FD0028F8D0AB8904F8013BB2
:10047000EFE770BD0030014038B504464518AC4286
:100480000ED0084814F8011B00F00BFD05480121AF
:1004900000F00CFD0028F9D0024800F004FDEEE762
:1004A00038BD00BF003001402DE9F0437E4C87B0DD
:1004B0000420012100F0BEFC03254FF01008204667
:1004C00069468DF80250ADF800808DF8038000F089
:1004D000EFFB4FF48073204669468DF80250ADF86B
:1004E00000308DF8038000F0E3FB4023ADF80030CE
:1004F00020461C23694618268DF802508DF80330DB
:1005000000F0D6FB802320466946ADF80030202756
:100510008DF802508DF8036000F0CAFB2046694652
:100520008DF802508DF80360DFF88091ADF800700F
:1005300000F0BEFB4FF48050012100F07BFC4FF433
:10054000827301240225ADF81060ADF80630002654
:100550004FF40073484601A9ADF80E30ADF80C40D9
:10056000ADF80A50ADF80860ADF80460ADF812605F
:1005700000F06CFC484621464FF08F0900F085FCE6
:10058000FFF74CFFFFF75AFF8DF80490FFF73EFF8F
:1005900001A82146FFF770FF0DF105002146FFF786
:1005A00055FFFFF73BFF8DF80490FFF73FFF01A8D1
:1005B0002146FFF761FF0DF105002146FFF746FFD9
:1005C000FFF73CFF0F238DF805308DF80470FFF71F
:1005D0001DFF01A82946FFF74FFFFFF71FFF8723E5
:1005E0008DF805308DF80470FFF720FF01A829462B
:1005F000FFF742FFFFF722FF24238DF804308DF828
:100600000580FFF713FF01A82946FFF735FFFFF725
:1006100015FFA4238DF80430FFF708FF01A8214639
:10062000FFF72AFF01A82146FFF710FFFFF706FF9B
:1006300025238DF804308DF80570FFF7F7FE01A82B
:100640002946FFF719FFFFF7F9FEA5238DF80430BF
:10065000FFF7ECFE01A82146FFF70EFF01A8214697
:10066000FFF7F4FEFFF7EAFE26238DF804308DF83D
:100670000560FFF7DBFE01A82946FFF7FDFEFFF747
:10068000DDFEA6238DF80430FFF7D0FE01A8214639
:10069000FFF7F2FE01A82146FFF7D8FEFFF7CEFED6
:1006A00007B0BDE8F08300BF000801400030014002
:1006B000F7B507460E46154602ACFFF7B7FEE8232E
:1006C00004F8083D20460121FFF7D6FE204606210A
:1006D000FFF7BCFE9DF801209DF8003043EA02239D
:1006E0003B809DF803209DF8023043EA02233380CB
:1006F0009DF805209DF8043043EA02232B80FFF784
:100700009DFE03B0F0BD08B50220012100F054F9B0
:10071000FFF711FEBDE8084000F0F4B9334B37B5E0
:100720001B684FF47A72B3FBF2F3314A013B53601A
:10073000304BF02183F823100023936007231360CC
:100740001024FFF7E0FF032500F05AF82A4801A91A
:100750008DF80650ADF804408DF8074000F0A8FA77
:100760002023254801A9ADF804308DF806508DF8F6
:10077000074000F09DFA40231F4801A9ADF804305E
:100780008DF806508DF8074000F092FA80231A4841
:1007900001A98DF80650ADF804308DF8074000F03F
:1007A00087FA164B013BFDD11348802100F0CEFAA9
:1007B0001148102100F0CAFA0F48202100F0C6FAB3
:1007C0000D48402100F0C2FA0B48802100F0C0FA29
:1007D0000948102100F0BCFA0748202100F0B8FABF
:1007E0000548402100F0B4FADBE700BF1C00002000
:1007F00010E000E000ED00E00008014040420F0082
:1008000007B51F4B1B78002BFBD01E4B1A78002A14
:10081000F7D000221A701C4B1B78DBB2022B0BD0D6
:10082000032B11D0012B16D10DF1020001A90DF1FE
:100830000602FFF7B7FD0EE00DF1020001A90DF170
:100840000602FFF73FFD06E00DF1020001A90DF1E0
:100850000602FFF72DFF0D4B186800B200F0E6F915
:10086000BDF9020000F0E2F9BDF9040000F0DEF984
:10087000BDF9060000F0DAF900F0AAF9C1E700BFFF
:1008800020000020020000200000002024000020A2
:100890000A4B19781A4681B1094B19680131196060
:1008A0001968C9075EBF0749012008701968064B1F
:1008B0001B68994284BF00231370704720000020FA
:1008C000240000200200002004000020054B1A68CC
:1008D00032B15A6842F000725A60034B01221A701A
:1008E000704700BF000002400300002010B52148FF
:1008F00040F2255100F069FB002839D01D4800F076
:100900005AFB1D4C40F2255120801A4800F07CFB18
:1009100023889BB2313B062B2AD8DFE803F0041270
:1009200015181C202400154A117801F0FF03F9B9AD
:1009300001211170124A1370124A1360124A136097
:1009400010BD00220D4B12E042F2107200E00F4A7F
:100950000F4B1A6010BDFFF783FC022206E0FFF781
:10096000EAFC012202E0FFF79FFD0322094B1A7007
:1009700010BD00BF003801403000002020000020E2
:1009800001000020240000202800002040420F0029
:10099000040000200000002001460022014800F071
:1009A000D9B900BF0008014001460122014800F00A
:1009B000D1B900BF000801402DE9F0478A468146C1
:1009C00086B0384C4FF4806000F0CAF90520012150
:1009D00000F030FA03251026204669464FF480784F
:1009E0008DF80250ADF800608DF8036000F060F9FA
:1009F0002046694618278DF80250ADF800808DF822
:100A0000036000F055F9202320466946ADF8003018
:100A10008DF802508DF8037000F04AF94023ADF8CC
:100A200000302046042369468DF803308DF80250CB
:100A300000F03EF9802320466946ADF800308DF87D
:100A400002508DF8037000F033F94FF4805001210B
:100A500000F0F0F90023ADF80830ADF80430ADF83F
:100A6000123004F520544FF48273ADF8063020465E
:100A70004FF4007301A9ADF80E30ADF81070ADF869
:100A80000CA0ADF80A9000F0E1F90121204600F039
:100A9000FCF93046FFF788FF4046FFF785FF06B0B8
:100AA000BDE8F0870008014038B504464518AC425F
:100AB0000ED0084814F8011B00F0F3F90548012195
:100AC00000F0F4F90028F9D0024800F0ECF9EEE764
:100AD00038BD00BF0030014070B504464618B4422E
:100AE0000DD0074BFF229A81054D0121284600F0C9
:100AF000DDF90028F8D0AB8904F8013BEFE770BDC1
:100B00000030014030B5052087B0294C012100F0AC
:100B100091F94FF400730325ADF8003020461823F7
:100B200069468DF803308DF8025000F0C1F84FF49B
:100B30008063ADF800302046042369468DF8033009
:100B40008DF8025000F0B4F84FF48040012100F01D
:100B500071F904F540544FF4E1330C22029320461E
:100B6000002302A9ADF81430ADF81030ADF80E3006
:100B7000ADF80C30ADF8122000F09EF920460121AE
:100B800000F0F0F9204640F22551012200F0F6F97C
:100B900025238DF8043001A801238DF807308DF846
:100BA00005308DF8063000F04DF807B030BD00BFBD
:100BB0000008014081B208B5044800F0F8F9034884
:100BC000402100F0FCF90028F9D008BD00380140B0
:100BD00008B50A480D2100F0EAF90848402100F064
:100BE000EEF90028F9D005480A2100F0E0F90348A1
:100BF000402100F0E4F90028F9D008BD0038014098
:100C000010B500F00F03000909288CBF37303030D1
:100C1000092B8CBF03F1370403F1300440B2FFF716
:100C2000C9FF60B2BDE81040FFF7C4BF10B504466D
:100C3000C0F30720FFF7E4FFE0B2BDE81040FFF784
:100C4000DFBF0000C27810B503780AB3164A03F17B
:100C50006043D4684278E443C4F30224C4F104013D
:100C600002FA01F10F22E240847803F56143224049
:100C70000A431201D2B283F80023037801225909F2
:100C800003F01F0302FA03F3084A42F8213010BDB3
:100C90005A09012103F01F03994002F12003034A7E
:100CA00042F8231010BD00BF00ED00E000E100E0BD
:100CB000CA78F0B5D40648BF8C780D8802F00F03CF
:100CC00048BF234315F0FF0F1DD001680024012603
:100CD000A64006EA0507B74211D14FEA840E0F2657
:100CE00006FA0EF621EA0601282A03FA0EF641EA70
:100CF000060101D1476102E0482A08BF07610134BB
:100D0000082CE4D10160FF2D1FD94168002404F1B3
:100D100008070126BE4006EA0507B74211D14FEA8F
:100D2000840E0F2606FA0EF621EA0601282A03FA97
:100D30000EF641EA060101D1476102E0482A08BFE8
:100D400007610134082CE2D14160F0BD01617047B8
:100D5000416170470AB1016170474161704700000D
:100D6000034A536823F4605343EAC000506070475D
:100D7000001002402A4B70B55A6802F00C02042A97
:100D800001D0082A01D0274A2AE05A685968C2F3DC
:100D900083420D2A01F4803114BF951C062509B940
:100DA000214A1CE0D96A1E4C11F4803FDA6A18BF50
:100DB000E16A1C4E1FBFC1F303110131B6FBF1F113
:100DC000E46A02F00F021EBFC4F30324023461433D
:100DD00002F101020CBFB6FBF2F2B1FBF2F26A4380
:100DE00002605A68114CC2F30312A15C0268CA4047
:100DF00042605968C1F30221615C22FA01F181600D
:100E00005968C1F3C221615CCA40C2605B6808498D
:100E1000C3F38133CB5CB2FBF3F2026170BD00BF60
:100E20000010024000127A0000093D000C00002072
:100E300008000020044B9A6909B1104301E022EA3E
:100E400000009861704700BF0010024003884A8884
:100E500010B503F441540B8813438A881343CA889E
:100E600013430A8913434A8913438A891343CA895E
:100E7000134323439BB20380838B23F400631B043F
:100E80001B0C83830B8A038210BD038819B19BB2AC
:100E900043F0400303E023F040031B041B0C0380DA
:100EA000704781817047808980B2704703891942F9
:100EB00014BF01200020704770B50E460446038A17
:100EC000CA889BB223F44053134303828289098961
:100ED000B38892B20B43718922F4B0520B4322F0D3
:100EE0000C0213439BB28381838AB2899BB223F4A1
:100EF000407386B01343838201A8FFF73BFF039B37
:100F0000049D174A3168944218BF1D46A3891922CF
:100F10006A431BB2002BB4BF4D008D00B2FBF5F548
:100F20006426B5FBF6F00001010906FB1153A28906
:100F300012B2002AADBF1A01D90032313232B5BF28
:100F4000B1FBF6F2B2FBF6F302F0070203F00F0377
:100F5000B4BF1043184380B2208106B070BD00BFFB
:100F600000380140838919B19BB243F4005303E078
:100F700023F400531B041B0C8381704710B5C1F38D
:100F80004214012301F01F01012C03FA01F301D1E6
:100F90000C3003E0022C0CBF1030143012B1026888
:100FA000134302E0026822EA0303036010BDC1F3A9
:100FB0000801818070478088C0F30800704703886B
:100FC000194214BF012000207047012310B5C1F35E
:100FD000421401F01F029C4203FA02F201D18389FC
:100FE00003E0022C0CBF038A838A9BB21340028861
:100FF00092B23BB1090A01238B40134214BF012076
:10100000002010BD184610BD090A01238B40DB43A8
:101010009BB20380704700000D4B70B51E460D4C0F
:101020000025E41AA410A54204D056F825309847AC
:101030000135F8E7084B094C1E46E41AA4100025B8
:10104000A54204D056F8253098470135F8E770BD21
:101050004C0200085002000850020008500200082C
:1010600038B5064B064C1D46E41AA41024B1013CC9
:1010700055F824309847F9E738BD00BF5002000802
:10108000500200080449054BCA6802F4E0621343A9
:10109000CB60BFF34F8FFEE700ED00E00400FA05E0
:1010A000434B82B01A6842F001021A605968414A03
:1010B0000A405A601A6822F0847222F480321A6060
:1010C0001A6822F480221A605A6822F4FE025A60DA
:1010D0001A6822F0A0521A604FF47F029A60002230
:1010E000DA62009201921A6842F480321A601A6839
:1010F00002F400320192009A01320092019A1AB968
:10110000009AB2F5A06FF2D11A6812F4003218BF3B
:1011100001220192019A012A05D0274B4FF000626B
:101120009A6002B07047254A116841F010011160C1
:10113000116821F003011160116841F00201116092
:101140005A685A605A685A605A6842F480625A6013
:10115000D96A1B4A0A40DA62DA6A42F4843242F0FF
:101160001402DA621A6842F080621A601968104A42
:101170000801FBD5516821F47C115160516841F49C
:10118000E8115160116841F0807111601968084AD6
:101190008901FBD5516821F003015160516841F08C
:1011A000020151605A6802F00C02082AFAD1B4E731
:1011B000001002400000FFF000ED00E000200240BF
:0411C00000F0FEFF3E
:1011C40001010101102700000204060800000000CC
:1011D40001020304010203040607080900A24A04E9
:0400000508000209E4
:00000001FF
