:020000040800F2
:1000000000000120090200083B0200083D02000830
:100010003F020008410200084302000800000000FF
:100020000000000000000000000000004502000881
:1000300047020008000000004902000825070008E8
:1000400039020008390200083902000839020008A4
:100050003902000839020008390200083902000894
:100060003902000839020008390200083902000884
:100070003902000839020008390200083902000874
:100080003902000875070008390200083902000823
:100090003902000839020008390200083902000854
:1000A0003902000839020008390200083902000844
:1000B0003902000839020008390200083902000834
:1000C0003902000839020008390200083902000824
:1000D00039020008950700083902000839020008B3
:1000E0003902000839020008390200080000000047
:1000F0000000000000000000000000000000000000
:100100000000000000000000390200083902000869
:1001100039020008390200083902000839020008D3
:1001200039020008390200083902000839020008C3
:1001300039020008390200083902000839020008B3
:1001400039020008390200083902000839020008A3
:10015000000000000000000000000000000000009F
:10016000000000000000000000000000000000008F
:10017000000000000000000000000000000000007F
:10018000000000000000000000000000000000006F
:10019000000000000000000000000000000000005F
:1001A000000000000000000000000000000000004F
:1001B000000000000000000000000000000000003F
:1001C000000000000000000000000000000000002F
:1001D000000000000000000000000000000000001F
:1001E0005FF8E0F1054A064B06498B4204D252F80B
:1001F000041F43F8041BF7E700F064BF90190008E0
:10020000000000206408002010B5094B094A934201
:1002100003D2002243F8042BF8E700F00FFF00F0B0
:100220002FFA044600F02EFF204600F03DFF00BFED
:1002300064080020CC160020FEE7FEE7FEE7FEE79C
:0C024000FEE7FEE7FEE7FEE7FEE7FEE754
:04024C00E5010008C0
:1002500013B58F2302AC04F8043D00F0C9FB20461F
:10026000012100F039FC0DF10500012100F04CFCEA
:1002700000F0C6FB9DF80530332B1DD11F238DF8F0
:10028000043080238DF8053000F0B2FB20460221B7
:1002900000F022FC00F0B4FB20238DF8043077231B
:1002A0008DF8053000F0A4FB2046022100F014FC7C
:1002B00000F0A6FB012000E0002002B010BDF7B561
:1002C00007460E46154602ACE82304F8043D00F04C
:1002D0008FFB2046012100F0FFFB2046022100F0A9
:1002E00013FC9DF805209DF80430204643EA0223C4
:1002F0003B80022100F008FC9DF805209DF80430A9
:10030000204643EA02233380022100F0FDFB9DF8E2
:1003100005209DF8043043EA02232B8000F070FB97
:1003200003B0F0BD02480221002200F023BD00BF4F
:100330000010014002480221012200F01BBD00BF55
:100340000010014002480121002200F013BD00BF4F
:1003500000100140012102480A4600F00BBD00BF19
:100360000010014070B504464618B4420DD0074B4A
:10037000FF229A81054D0121284600F0A9FD0028A1
:10038000F8D0AB8904F8013BEFE770BD00300140C5
:1003900038B504464518AC420ED0084814F8011B85
:1003A00000F091FD0548012100F092FD0028F9D0F0
:1003B000024800F08AFDEEE738BD00BF0030014082
:1003C0002DE9F047102086B0012100F045FD814F56
:1003D0000820012100F040FD04200121012400F04B
:1003E0003BFD03264FF01008384669460225DFF82A
:1003F000E8A18DF80260ADF800408DF8038000F0B0
:100400006BFC384669468DF80260ADF800508DF8F7
:10041000038000F061FC4023ADF8003050461C23FF
:1004200069464FF018098DF802608DF8033000F02E
:1004300053FC802350466946ADF8003020278DF8E4
:1004400002608DF8039000F047FC504669468DF835
:1004500002608DF80390ADF8007000F03DFC21467D
:100460004FF4805000F0F8FCADF81090DFF86C917C
:100470004FF482730026ADF8063048464FF40073FF
:1004800001A9ADF80E30ADF80C40ADF80A50ADF84A
:100490000860ADF80460ADF8126000F0E9FC484671
:1004A00021464FF08F0900F002FDFFF743FFFFF7F1
:1004B00051FF00F08BFA00F0A3FA8DF80490FFF7DB
:1004C00031FF01A82146FFF763FF01A82146FFF78E
:1004D00049FFFFF72FFF8DF80490FFF733FF01A8C6
:1004E0002146FFF755FF01A82146FFF73BFFFFF725
:1004F00031FF0F238DF805308DF80470FFF712FFE0
:1005000001A82946FFF744FFFFF714FF87238DF862
:1005100005308DF80470FFF715FF01A82946FFF795
:1005200037FFFFF717FF24238DF804308DF805807F
:10053000FFF708FF01A82946FFF72AFFFFF70AFF88
:10054000A4238DF80430FFF7FDFE01A82146FFF734
:100550001FFF01A82146FFF705FFFFF7FBFE25233C
:100560008DF804308DF80570FFF7ECFE01A82946E0
:10057000FFF70EFFFFF7EEFEA5238DF80430FFF71F
:10058000E1FE01A82146FFF703FF01A82146FFF77E
:10059000E9FEFFF7DFFE26238DF804308DF80560B5
:1005A000FFF7D0FE01A82946FFF7F2FEFFF7D2FEC3
:1005B000A6238DF80430FFF7C5FE01A82146FFF7FA
:1005C000E7FE01A82146FFF7CDFEFFF7C3FE06B008
:1005D000BDE8F087001001400008014000300140F4
:1005E0008068704770B5144606460C200D4600F032
:1005F00001FEA368066045601BB9206060608360EF
:1006000002E06268906060600133A36070BDF8B57D
:100610008C6806460D4654B10868836807684468CC
:100620000B6000F0EFFDAB68013BAB6000E02746DC
:10063000376074603046F8BD08B5182000F0DAFD68
:100640000022826002604260034AC260034A026183
:10065000034A426108BD00BFE50500080F06000817
:10066000E105000808B50220012100F0D1F9FFF7EB
:10067000A7FEFFF7EDFDBDE8084000F05BBA000003
:10068000254B4FF47A721B6830B5B3FBF2F3234A63
:10069000013B5360224BF02183F823100023936029
:1006A000072389B01360FFF7DDFF022301258DF8D2
:1006B000063003238DF807308DF80550FFF7BCFF97
:1006C0000446C36829460DF1050022469847E368B1
:1006D0000DF1060029462246984722462946E3683E
:1006E0000DF107009847636920469847236902A8DF
:1006F00021469847236904A821469847236906A8FC
:100700002146984763692046984700F0BDF841208C
:1007100000F07EFAFBE700BF2000002010E000E0C0
:1007200000ED00E00D4B19781A46B1B10C4B196879
:10073000013119601968C9075EBF0A4901200870B4
:100740001968094B1B68994207D900231370074B9E
:1007500007481A680321D3681847704764080020C7
:10076000680800200700002000000020B0080020DA
:1007700004000020054B1A6832B15A6842F000723A
:100780005A60034B01221A70704700BF00000240FC
:100790000800002037B51F4840F2255100F027FC23
:1007A000002835D01B4800F018FC1B4C40F22551A6
:1007B0002080184800F03AFC23889BB2313B032B81
:1007C00026D8DFE803F0021B1F22144B1A781D46BF
:1007D000F2B9134C20684369984720B121686846F4
:1007E0000B699847F5E70F4B188001232B700E4BD0
:1007F00018700E4B18600E4B186009E0074B002272
:100800001A7005E042F2107200E00A4A0A4B1A60C0
:1008100003B030BD00380140B40800206408002057
:10082000B0080020660800200900002068080020A9
:100830007008002040420F000000002000F00F036D
:10084000000909288CBF37303030092B88548CBF01
:10085000373330330A445370704770B51446054639
:100860000E46C0F30720FFF7E9FFE8B23146A21CAD
:10087000FFF7E4FF201D70BD0D23435408440A23F5
:100880004370881C704700002DE9FF41FFF7D4FE3C
:10089000424E3060424B1B78002B60D0414B1A789F
:1008A000002A5CD0DFF8208100221A700DF10200CE
:1008B00001A90DF10602FFF702FDD8F800303A4C0D
:1008C0000133C8F80030394B394D18682288294661
:1008D00092B200B2FFF7C1FF80B220802288294681
:1008E00092B2BDF90200FFF7B8FF80B220802288E3
:1008F000294692B2BDF90400FFF7AFFF80B2208015
:100900002288294692B2BDF90600FFF7A6FF80B201
:1009100020802188284689B2FFF7AEFF80B2208070
:10092000D8F80020322392FBF3F703FB1727B7B95F
:100930003268C8F80070D36820884FF4617180B2C3
:10094000A0F561702844984740F68C2223889BB21A
:100950009342184AC8BF2780136801331360164DAD
:100960002B78002B96D0306843699847002891D0A7
:100970000A4B002419682C700B6902A898470F4A8B
:100980001368013313600E4B039A1C605A600D4AC2
:100990009A60029ADA6093221A607BE7B00800201E
:1009A0006408002007000020660800206808002076
:1009B000B60800206C080020080000207408002001
:1009C00080000240043801407008002007B503236E
:1009D0008DF806300548102301A9ADF804308DF8D4
:1009E000073000F079F903B05DF804FB000801401E
:1009F00002481021002200F0BDB900BF00080140EC
:100A000002481021012200F0B5B900BF00080140E2
:100A10002DE9F041074688462E4C86B0042001217E
:100A200000F01AFA03251023204669461826ADF86F
:100A300000308DF803308DF8025000F04DF920237E
:100A400020466946ADF800308DF802508DF80360FD
:100A500000F042F94023ADF8003020461C236946DF
:100A60008DF803308DF8025000F036F980232046CF
:100A70006946ADF800308DF802508DF8036000F043
:100A80002BF94FF48050012100F0E6F90023ADF876
:100A90000830ADF80430ADF8123004F520544FF4AE
:100AA0008273ADF8063020464FF4007301A9ADF80B
:100AB0000E30ADF81060ADF80C80ADF80A7000F0A3
:100AC000D7F92046012100F0F2F9FFF799FF06B0AF
:100AD000BDE8F0810008014038B504464518AC4235
:100AE0000ED0084814F8011B00F0EDF9054801216B
:100AF00000F0EEF90028F9D0024800F0E6F9EEE740
:100B000038BD00BF0030014070B504464618B442FD
:100B10000DD0074BFF229A81054D0121284600F098
:100B2000D7F90028F8D0AB8904F8013BEFE770BD96
:100B30000030014070B5344C86B00420012100F033
:100B40008BF903264FF40073182520466946ADF84B
:100B500000308DF803508DF8026000F0BDF84FF4BE
:100B6000806320466946ADF800308DF803508DF85B
:100B70000260264D00F0B0F84FF48040012100F0F3
:100B80006BF94FF4E1330C2202932846002302A9AB
:100B9000ADF81430ADF81030ADF80E30ADF80C30C3
:100BA000ADF8122000F09AF92846012100F0ECF986
:100BB000012240F22551284600F0F2F901242523B4
:100BC00001A88DF804308DF807408DF805408DF8A8
:100BD000064000F04BF8AB8A01A89BB243F08003BB
:100BE000AB8211238DF8043002238DF806308DF886
:100BF00007408DF8054000F039F82046214600F006
:100C00001FF906B070BD00BF000801400038014068
:100C100081B208B5044800F0DCF90348402100F037
:100C2000E0F90028F9D008BD0038014008B50C4BA8
:100C30001A680AB90B4A1A601A68C31C23F0030326
:100C4000094913448B4206D900F0CEFA0C23036005
:100C50004FF0FF3008BD024910460B6008BD00BFD1
:100C600078080020CC16002000FC0020C27810B5C7
:100C700003780AB3164A03F16043D4684278E44328
:100C8000C4F30224C4F1040102FA01F10F22E2408C
:100C9000847803F5614322400A431201D2B283F8FB
:100CA000002303780122590903F01F0302FA03F31A
:100CB000084A42F8213010BD5A09012103F01F03F0
:100CC000994002F12003034A42F8231010BD00BFEF
:100CD00000ED00E000E100E0CA78F0B5D40648BFBE
:100CE0008C780D8802F00F0348BF234315F0FF0FE7
:100CF0001DD0016800240126A64006EA0507B74278
:100D000011D14FEA840E0F2606FA0EF621EA0601EB
:100D1000282A03FA0EF641EA060101D1476102E0F2
:100D2000482A08BF07610134082CE4D10160FF2D77
:100D30001FD94168002404F108070126BE4006EAD5
:100D40000507B74211D14FEA840E0F2606FA0EF6B8
:100D500021EA0601282A03FA0EF641EA060101D12A
:100D6000476102E0482A08BF07610134082CE2D13C
:100D70004160F0BD0AB101617047416170470000F8
:100D80002A4B70B55A6802F00C02042A01D0082AD6
:100D900001D0274A2AE05A685968C2F383420D2AD3
:100DA00001F4803114BF951C062509B9214A1CE0C5
:100DB000D96A1E4C11F4803FDA6A18BFE16A1C4EF2
:100DC0001FBFC1F303110131B6FBF1F1E46A02F078
:100DD0000F021EBFC4F303240234614302F1010277
:100DE0000CBFB6FBF2F2B1FBF2F26A4302605A6842
:100DF000114CC2F30312A15C0268CA4042605968F8
:100E0000C1F30221615C22FA01F181605968C1F3EA
:100E1000C221615CCA40C2605B680849C3F3813388
:100E2000CB5CB2FBF3F2026170BD00BF0010024068
:100E300000127A0000093D000E0000200A00002088
:100E4000044B5A6909B1104301E022EA00005861DD
:100E5000704700BF00100240044B9A6909B110436B
:100E600001E022EA00009861704700BF00100240D4
:100E700003884A8810B503F441540B8813438A88C9
:100E80001343CA8813430A8913434A8913438A893F
:100E90001343CA89134323439BB20380838B23F4F8
:100EA00000631B041B0C83830B8A038210BD038821
:100EB00019B19BB243F0400303E023F040031B044D
:100EC0001B0C0380704781817047808980B2704716
:100ED0000389194214BF01200020704770B50E46E7
:100EE0000446038ACA889BB223F440531343038207
:100EF00082890989B38892B20B43718922F4B05276
:100F00000B4322F00C0213439BB28381838AB28984
:100F10009BB223F4407386B01343838201A8FFF78A
:100F20002FFF039B049D174A3168944218BF1D464A
:100F3000A38919226A431BB2002BB4BF4D008D0058
:100F4000B2FBF5F56426B5FBF6F00001010906FBDE
:100F50001153A28912B2002AADBF1A01D900323151
:100F60003232B5BFB1FBF6F2B2FBF6F302F0070284
:100F700003F00F03B4BF1043184380B2208106B0C2
:100F800070BD00BF00380140838919B19BB243F4A2
:100F9000005303E023F400531B041B0C83817047B0
:100FA00010B5C1F34214012301F01F01012C03FA13
:100FB00001F301D10C3003E0022C0CBF10301430CF
:100FC00012B10268134302E0026822EA03030360DD
:100FD00010BDC1F30801818070478088C0F308000C
:100FE00070470388194214BF012000207047012375
:100FF00010B5C1F3421401F01F029C4203FA02F241
:1010000001D1838903E0022C0CBF038A838A9BB23F
:101010001340028892B23BB1090A01238B4013426C
:1010200014BF0120002010BD184610BD090A01237D
:101030008B40DB439BB20380704700000D4B70B5C3
:101040001E460D4C0025E41AA410A54204D056F803
:10105000253098470135F8E7084B094C1E46E41A3D
:10106000A4100025A54204D056F825309847013534
:10107000F8E770BD4C02000850020008500200085A
:101080005002000838B5064B064C1D46E41AA41061
:1010900024B1013C55F824309847F9E738BD00BF2A
:1010A00050020008500200080449054BCA6802F4C7
:1010B000E0621343CB60BFF34F8FFEE700ED00E02B
:1010C0000400FA05434B82B01A6842F001021A602C
:1010D0005968414A0A405A601A6822F0847222F420
:1010E00080321A601A6822F480221A605A6822F448
:1010F000FE025A601A6822F0A0521A604FF47F0272
:101100009A600022DA62009201921A6842F48032F8
:101110001A601A6802F400320192009A01320092B9
:10112000019A1AB9009AB2F5A06FF2D11A6812F4B6
:10113000003218BF01220192019A012A05D0274BE3
:101140004FF000629A6002B07047254A116841F082
:1011500010011160116821F003011160116841F064
:10116000020111605A685A605A685A605A6842F41B
:1011700080625A60D96A1B4A0A40DA62DA6A42F42B
:10118000843242F01402DA621A6842F080621A6015
:101190001968104A0801FBD5516821F47C1151608F
:1011A000516841F4E8115160116841F0807111609B
:1011B0001968084A8901FBD5516821F00301516083
:1011C000516841F0020151605A6802F00C02082A8D
:1011D000FAD1B4E7001002400000FFF000ED00E09B
:1011E0000020024000F0FEFF014B1868704700BF6E
:1011F00050040020024B0146186800F00BB800BFF5
:1012000050040020024B0146186800F0E9BA00BF04
:10121000500400202DE9F04F01F10B05162D83B08D
:10122000064627D935F0070500F1B680A94200F23D
:10123000B38000F071FAB5F5FC7F22D2BC4FE8080C
:1012400007EBC003DC689C4200F0BD816368E16885
:1012500023F0030323445A68A56842F00102E960C1
:1012600030468D605A6000F059FA0834204603B0C9
:10127000BDE8F08F102900F28F8000F04DFA1025A4
:10128000DCE7680A00F08F80042800F24781A80993
:1012900038304100A64F07EB8101CC68A14206D14E
:1012A0000CE0002A80F28280E468A14206D06368E4
:1012B00023F003035A1B0F2AF3DD013801309C4948
:1012C0003C6901F1080E744500F07281636823F0F7
:1012D00003035A1B0F2A00F35881002AC1F814E0B7
:1012E000C1F810E066DAB3F5007F80F02D81DB08ED
:1012F00001EBC3084FEAA30C4A68012303FA0CF37D
:10130000D8F808C01343C4F808C0C4F80C804B6078
:10131000C8F80840CCF80C408210012494409C424C
:1013200055D8234206D120F003006400234200F187
:101330000400FAD007EBC008C4468146DCF80C3044
:101340009C4507D136E1002980F24681DB689C4547
:1013500000F030815A6822F00302511B0F29F2DDA0
:101360001C46DA6854F808CF45F0010941F001083D
:101370001D44C3F804903046CCF80C20C2F808C0D5
:101380007D613D61C5F80CE0C5F808E0C5F8048052
:10139000695000F0C3F969E7002420460C2333604C
:1013A00003B0BDE8F08F7E213F2073E723445A68E5
:1013B000E16851E723445A68304642F001025A601E
:1013C000083400F0ABF9204603B0BDE8F08FBC68EC
:1013D000636823F00308454504D8C5EB08030F2BC9
:1013E00000F38C80534BDFF85CA11A68DAF8003008
:1013F0002A44013304EB080B00F0518102F58052BE
:101400000F3222F47F6222F00F0211463046019221
:1014100000F086F9B0F1FF3F8146019A00F0F680B6
:10142000834500F2F080444BCB45196811441960A4
:1014300000F03E81DAF80000DFF808E101301BBF60
:10144000CBEB090B5944CEF80090196019F0070155
:1014500000F00881C1F10800C1F5805181440831D4
:101460004A44C2F30B02C2EB010A514630460193D3
:1014700000F056F9431C019B00F02881C9EB0002E3
:10148000524442F001021968BC425144C7F8089026
:101490001960C9F80420DFF8A0A016D0B8F10F0F2A
:1014A00040F2E3806268A8F10C0323F0070302F026
:1014B0000102E0184FF0050E1A430F2B6260C0F8CE
:1014C00004E0C0F808E000F205811C4BBC681A6813
:1014D000914288BF19601A4B1A689142626888BFAE
:1014E000196022F003029542A2EB050301D80F2BED
:1014F00004DC304600F012F90024B7E645F00102A2
:1015000043F00103254462603046BD6008346B60DF
:1015100000F004F9204603B0BDE8F08F14286AD922
:10152000542800F29880280B6E304100B2E600BFCC
:10153000540400208408002088080020800800202F
:101540007C080020600800205A0A042A56D9142A70
:1015500000F2A7805B324FEA420C07EB8C0CDCF800
:101560000810DFF8B081614500F085804A6822F0FC
:101570000302934202D289688C45F7D1CA687B681E
:10158000E260A1609460CC60C6E645F0010742F0DD
:1015900001032544676030464D610D61C5F80CE0DC
:1015A000C5F808E06B60AA50083400F0B7F85DE6B3
:1015B0004B68B1E609F1010919F0030F0CF1080CB1
:1015C0007FF4BCAE2BE004F108036469A34208BFBA
:1015D00002303FF474AE39E61C461A445168DB68A9
:1015E00054F8085F41F0010151603046EB609D60A6
:1015F00000F094F83AE65B3041004BE69A09383245
:101600004FEA420CA9E7BC423FF40DAFBC686268E8
:1016100022F0030267E7D8F80080984577D110F0F0
:10162000030FA8F1080300F1FF30F4D17B6823EA2F
:1016300004037B6064009C423FF6C9AE002C3FF47B
:10164000C6AE234248467FF475AE6400234200F1E3
:101650000400FAD06EE6B0F5AA7F18D8E80B773010
:10166000410017E64FF48051FAE60123C9F804302F
:101670004C46002237E7D8F8043092104FF0010CA6
:101680000CFA02F21343C8F804300A4678E740F235
:101690005453984217D8A80C7C304100FAE5103218
:1016A000B3E6542A1ED81A0B6E324FEA420C54E7A6
:1016B000CBF30B0000287FF4BDAE4244BB6842F080
:1016C00001025A6001E7FC217E20E3E501224FF090
:1016D000000AD8E604F10801304600F081F8DAF893
:1016E0000010F2E6B2F5AA7F04D8DA0B77324FEA9F
:1016F000420C32E740F254518A4204D89A0C7C32B0
:101700004FEA420C29E74FF0FC0C7E2225E77B686C
:1017100090E700BF54040020704700BF704700BF2F
:1017200038B5074C0023054608462360FFF77EFACC
:10173000431C00D038BD2368002BFBD02B6038BD84
:10174000C8160020F8B50C46224F0646FFF7E4FF06
:10175000BB685D6825F00305291B01F6EF7121F4D4
:101760007F6121F00F01A1F58054B4F5805F07DBA4
:1017700030460021FFF7D4FFBB682B44984204D0C9
:101780003046FFF7CBFF0020F8BD30466142FFF73F
:10179000C7FF01300DD0104BBA6819682D1B45F0FA
:1017A00001053046091B55601960FFF7B7FF01209E
:1017B000F8BD30460021FFF7B3FFBA68831A0F2B3C
:1017C000DEDD064C0449246843F00103001B53602E
:1017D0000860D5E754040020880800206008002035
:1017E00000294ED02DE9F0410C468046FFF794FFCA
:1017F00054F8047C6249A4F1080527F00102AB18F3
:101800008E6858689E4220F003005AD0FE07586048
:101810000BD454F8087C01F1080EED1BAC683A4477
:10182000744567D0EF68E760BC601C186468E40723
:101830000CD4544F9C680244BC427CD0D86842F01F
:101840000103E06084606B60AA5003E042F0010392
:101850006B60AA50B2F5007F14D2D20801EBC2032C
:1018600001244868921004FA02F29C681043AC60AC
:10187000EB6048609D60E5604046BDE8F041FFF7E1
:101880004DBF7047530A042B47D8930903F138041E
:10189000600001EB800083683949834243D0596876
:1018A00021F00301914202D99B689842F7D1DA688E
:1018B000EA60AB6040469560DD60BDE8F041FFF74F
:1018C0002DBFFF07024407D454F8084C2D1BEB68CA
:1018D000A8682244C36098602B4B42F001001B684B
:1018E00068609A428D60C7D3284B40461968FFF75D
:1018F00029FFC1E719184968C90709D4D968024402
:101900009B6842F00100D9608B606860AA50B3E721
:1019100042F001036B60AA50AEE7142B14D803F118
:101920005B046000B5E74A68A4100120A0400243B0
:101930004A601A46BCE742F001034D610D61EC605C
:10194000AC606B60AA5097E7542B04D8130B03F1DB
:101950006E0460009DE7B3F5AA7F04D8D30B03F1B2
:101960007704600095E740F25450834204D8930C0A
:1019700003F17C0460008CE7FC207E2489E700BF33
:10198000540400205C0400205C080020840800202F
:041990004300000010
:1019940010270000230D0A010101020406080000BB
:1019A4000000010203040102030406070809000001
:1019B40000A24A04000000000000000014030020FC
:1019C4007C030020E403002000000000000000006D
:1019D4000000000000000000000000000000000003
:1019E4000000000000000000000000009019000842
:1019F40000000000000000000000000000000000E3
:101A040000000000000000000000000000000000D2
:101A140000000000000000000000000000000000C2
:101A240000000000000000000000000000000000B2
:101A340000000000000000000000000000000000A2
:101A44000000000000000000000000000000000092
:101A54000000000000000000000000000000000082
:101A640001000000000000000E33CDAB34126DE61F
:101A7400ECDE05000B000000000000000000000088
:101A84000000000000000000000000000000000052
:101A94000000000000000000000000000000000042
:101AA4000000000000000000000000000000000032
:101AB4000000000000000000000000000000000022
:101DE400280000200000000000000000540400202F
:101DF400540400205C0400205C04002064040020DF
:101E0400640400206C0400206C040020740400208E
:101E1400740400207C0400207C040020840400203E
:101E2400840400208C0400208C04002094040020EE
:101E3400940400209C0400209C040020A40400209E
:101E4400A4040020AC040020AC040020B40400204E
:101E5400B4040020BC040020BC040020C4040020FE
:101E6400C4040020CC040020CC040020D4040020AE
:101E7400D4040020DC040020DC040020E40400205E
:101E8400E4040020EC040020EC040020F40400200E
:101E9400F4040020FC040020FC04002004050020BD
:101EA400040500200C0500200C050020140500206A
:101EB400140500201C0500201C050020240500201A
:101EC400240500202C0500202C05002034050020CA
:101ED400340500203C0500203C050020440500207A
:101EE400440500204C0500204C050020540500202A
:101EF400540500205C0500205C05002064050020DA
:101F0400640500206C0500206C0500207405002089
:101F1400740500207C0500207C0500208405002039
:101F2400840500208C0500208C05002094050020E9
:101F3400940500209C0500209C050020A405002099
:101F4400A4050020AC050020AC050020B405002049
:101F5400B4050020BC050020BC050020C4050020F9
:101F6400C4050020CC050020CC050020D4050020A9
:101F7400D4050020DC050020DC050020E405002059
:101F8400E4050020EC050020EC050020F405002009
:101F9400F4050020FC050020FC05002004060020B8
:101FA400040600200C0600200C0600201406002065
:101FB400140600201C0600201C0600202406002015
:101FC400240600202C0600202C06002034060020C5
:101FD400340600203C0600203C0600204406002075
:101FE400440600204C0600204C0600205406002025
:101FF400540600205C0600205C06002064060020D5
:10200400640600206C0600206C0600207406002084
:10201400740600207C0600207C0600208406002034
:10202400840600208C0600208C06002094060020E4
:10203400940600209C0600209C060020A406002094
:10204400A4060020AC060020AC060020B406002044
:10205400B4060020BC060020BC060020C4060020F4
:10206400C4060020CC060020CC060020D4060020A4
:10207400D4060020DC060020DC060020E406002054
:10208400E4060020EC060020EC060020F406002004
:10209400F4060020FC060020FC06002004070020B3
:1020A400040700200C0700200C0700201407002060
:1020B400140700201C0700201C0700202407002010
:1020C400240700202C0700202C07002034070020C0
:1020D400340700203C0700203C0700204407002070
:1020E400440700204C0700204C0700205407002020
:1020F400540700205C0700205C07002064070020D0
:10210400640700206C0700206C070020740700207F
:10211400740700207C0700207C070020840700202F
:10212400840700208C0700208C07002094070020DF
:10213400940700209C0700209C070020A40700208F
:10214400A4070020AC070020AC070020B40700203F
:10215400B4070020BC070020BC070020C4070020EF
:10216400C4070020CC070020CC070020D40700209F
:10217400D4070020DC070020DC070020E40700204F
:10218400E4070020EC070020EC070020F4070020FF
:10219400F4070020FC070020FC07002004080020AE
:1021A400040800200C0800200C080020140800205B
:1021B400140800201C0800201C080020240800200B
:1021C400240800202C0800202C08002034080020BB
:1021D400340800203C0800203C080020440800206B
:1021E400440800204C0800204C0800200000020095
:0421F400FFFFFFFFEB
:0400000508000209E4
:00000001FF
