:020000040800F2
:10000000000001200D0200083F0200084102000824
:1000100043020008450200084702000800000000F3
:10002000000000000000000000000000490200087D
:100030004B020008000000004D020008B102000859
:100040003D0200083D0200083D0200083D02000894
:100050003D0200083D0200083D0200083D02000884
:100060003D0200083D0200083D0200083D02000874
:100070003D0200083D0200083D0200083D02000864
:100080003D0200083D0200083D0200083D02000854
:100090003D0200083D0200083D0200083D02000844
:1000A0003D0200083D0200083D0200083D02000834
:1000B0003D0200083D0200083D0200083D02000824
:1000C0003D0200083D0200083D0200083D02000814
:1000D0003D0200083D0200083D0200083D02000804
:1000E0003D0200083D0200083D020008000000003B
:1000F0000000000000000000000000000000000000
:1001000000000000000000003D0200083D02000861
:100110003D0200083D0200083D0200083D020008C3
:100120003D0200083D0200083D0200083D020008B3
:100130003D0200083D0200083D0200083D020008A3
:100140003D0200083D0200083D0200083D02000893
:10015000000000000000000000000000000000009F
:10016000000000000000000000000000000000008F
:10017000000000000000000000000000000000007F
:10018000000000000000000000000000000000006F
:10019000000000000000000000000000000000005F
:1001A000000000000000000000000000000000004F
:1001B000000000000000000000000000000000003F
:1001C000000000000000000000000000000000002F
:1001D000000000000000000000000000000000001F
:1001E0005FF8E0F10023064A06499818884204D2D5
:1001F0000549595899500433F5E700F0B9B900BFE3
:1002000000000020040000209406000810B5094BEF
:10021000094A934203D2002243F8042BF8E700F086
:1002200063F900F017F8044600F082F9204600F068
:1002300091F900BF0400002008000020FEE7FEE75F
:10024000FEE7FEE7FEE7FEE7FEE7FEE7FEE7FEE786
:04025000E5010008BC
:10025400124B07B51A684FF47A73B2FBF3F2104BE2
:10026400013A5A600F4AF02182F8231000229A6062
:1002740007221A6000F024F88C238DF8073000F070
:100284007DF80DF1070000F089F800F07FF8064BC7
:1002940064221A601A68002AFCD1F0E700000020EA
:1002A40010E000E000ED00E004000020034B1A68B9
:1002B40012B11A68013A1A60704700BF04000020A6
:1002C40070B52D4C86B00420012100F0CBF8032535
:1002D400102320466946ADF800308DF80330182607
:1002E4008DF8025000F06AF8202320466946ADF8E4
:1002F40000308DF802508DF8036000F05FF8402361
:10030400ADF8003020461C2369468DF803308DF883
:10031400025000F053F8802320466946ADF80030BF
:100324008DF802508DF8036000F048F84FF48050C7
:10033400012100F097F80023ADF81030ADF80C302F
:10034400ADF80A30ADF80830ADF80430ADF812302D
:1003540004F520544FF48273ADF8063020464FF470
:10036400007301A9ADF80E3000F088F82046012191
:1003740000F0A3F806B070BD000801400248102147
:10038400002200F069B800BF0008014002481021B3
:10039400012200F061B800BF0008014010B5044616
:1003A4000548022100F097F80028F9D02178024886
:1003B400BDE8104000F08DB800300140CB78F0B5B6
:1003C400DA0648BF8A78098803F00F0548BF154349
:1003D40011F0FF0F1DD0046800220127974007EA9F
:1003E4000106BE4211D197004FF00F0C0CFA07FC26
:1003F40005FA07F724EA0C04282B44EA070401D180
:10040400466102E0482B08BF06610132082AE4D1A4
:100414000460FF291FD94468002202F1080601275D
:10042400B74007EA0106BE4211D197004FF00F0C06
:100434000CFA07FC05FA07F724EA0C04282B44EA13
:10044400070401D1466102E0482B08BF066101326E
:10045400082AE2D14460F0BD0AB1016170474161EC
:1004640070470000044B9A6909B1104301E022EA85
:1004740000009861704700BF001002400B8810B55F
:100484004C88028823438C8802F441522343CC884D
:1004940023430C8923434C8923438C892343CC89EC
:1004A400234313439BB20380838B23F400631B0415
:1004B4001B0C83830B8A038210BD038819B19BB282
:1004C40043F0400303E023F040031B041B0C0380B0
:1004D400704781817047038919420CBF00200120B5
:1004E4007047000070B50D4B0D4D0024ED1AAD1092
:1004F4001E46AC4204D056F8242090470134F8E755
:10050400084B094D0024ED1AAD101E46AC4204D030
:1005140056F8242090470134F8E770BD50020008D3
:1005240054020008540200085402000838B5064D6D
:10053400064C641BA41005EB840524B155F8043D56
:10054400013C9847F9E738BD5402000854020008FA
:10055400044A054BD16801F4E0610B43D360BFF357
:100564004F8FFEE700ED00E00400FA05434B82B034
:100574001A6842F001021A605968414A0A405A60F6
:100584001A6822F0847222F480321A601A6822F403
:1005940080221A605A6822F4FE025A601A6822F015
:1005A400A0521A604FF47F029A600022DA6200922D
:1005B40001921A6842F480321A601A6802F4003216
:1005C4000192009A01320092019A1AB9009AB2F586
:1005D400A06FF2D11A6812F4003218BF01220192FE
:1005E400019A012A05D0274B4FF000629A6002B0AD
:1005F4007047254A116841F010011160116821F01B
:1006040003011160116841F0020111605A685A60D7
:100614005A685A605A6842F480625A60D96A1B4A1E
:100624000A40DA62DA6A42F4833242F04402DA625D
:100634001A6842F080621A601968104A0801FBD5F2
:10064400516821F47C115160516841F4E811516002
:10065400116841F0807111601968084A8901FBD55D
:10066400516821F003015160516841F00201516069
:100674005A6802F00C02082AFAD1B4E700100240CA
:100684000000FFF000ED00E00020024000F0FEFF5B
:0406940000A24A0472
:040000050800020DE0
:00000001FF
